:020000040800F2
:10000000D0FA0020A50100080D2400089123000863
:10001000092400086D0C0008FD34000800000000F1
:10002000000000000000000000000000B701000810
:10003000291F000800000000BB010008D5280008A7
:10004000BF010008BF010008BF010008BF01000890
:10005000BF010008BF010008BF010008BF01000880
:10006000BF010008BF010008BF010008BF01000870
:10007000BF010008BF010008BF010008BF01000860
:10008000BF010008BF010008BF010008350F0008CC
:10009000710C0008BF010008BF010008BF01000883
:1000A000BF010008BF010008BF010008BF01000830
:1000B000852B0008BF010008BF010008BF01000830
:1000C000BF010008BF010008BF010008BF01000810
:1000D000BF010008BF010008BD2E0008BF010008D5
:1000E000BF010008BF010008BF010008BF010008F0
:1000F000BF010008BF010008BF010008BF010008E0
:10010000BF010008BF010008BF010008BF010008CF
:10011000BF010008A92D0008BF010008BF010008A9
:10012000BF01000841190008BF010008BF01000815
:10013000BF010008BF010008BF010008B50F00089B
:100140005D0F0008BF010008BF010008BF010008E3
:10015000BF010008BF010008BF010008BF0100087F
:10016000BF010008BF010008BF010008BF0100086F
:10017000BF010008BF010008BF010008BF0100085F
:10018000BF010008BF010008DFF814D000F0B4FC84
:1001900000F014F9004800475545010800F0C2FC82
:1001A000D0FA00200648804706480047FEE7FEE7F1
:1001B000FEE7FEE7FEE7FEE7FEE7FEE7FEE7FEE717
:1001C00035290008890100089FED1A1AF5EE000A8A
:1001D00040EE010ABDEEE00AF5EEC00A10EE100A8C
:1001E000F1EE10FA38BF401E00EE100A1349F7EE88
:1001F000001AB8EEC00A30EEC00ADFED0F0A20EE9A
:10020000200AFCEEC00A10EE900AC0F3080000EECF
:10021000900A01EB8000F8EE600A90ED011A70EE92
:10022000600A90ED000A71EEE01A21EE800A00EEFD
:10023000810A704783F9223E0000004414650108DA
:10024000DFED190AB5EEC00A60EE200ABDEEE01A35
:1002500011EE100AF1EE10FA38BF401E00EE100A3F
:100260001349F7EE001AB8EEC00A30EEC00ADFED0F
:100270000F0A60EE200ABCEEE00A10EE100AC0F38E
:10028000080000EE100A01EB8000B8EE400A90ED85
:10029000011A70EEC00A90ED000A71EEE01A21EE2C
:1002A000800A00EE810A704783F9223E0000004474
:1002B000146501082DE9F0410024061B254671F163
:1002C000000605DA01240027D0EB070067EB0101E7
:1002D000161E73F1000605DA0027D2EB070201258E
:1002E00067EB030300F0EDFA86460E4617469C4680
:1002F000AC4204D00025D0EB050E65EB010624B11D
:100300000020D2EB000760EB030C704631463A4602
:100310006346BDE8F08100000649074A086850437B
:1003200043F23902104408604008704701490860F0
:1003300070470000100000206D4EC64110B5431AF2
:10034000934209D28318881803E010F8011D03F8BE
:10035000011D521EF9D210BD40EA01039B0703D0D4
:1003600009E008C9121F08C0042AFAD203E011F8F4
:10037000013B00F8013B521EF9D210BDD2B201E0A0
:1003800000F8012B491EFBD270470022F6E710B59A
:1003900013460A4604461946FFF7F0FF204610BDF3
:1003A00030B504460020034600E05B1C934203D2B4
:1003B000E05CCD5C401BF8D030BD000070B5054C52
:1003C000054D04E02046016808448047241DAC42E6
:1003D000F8D170BD9C740108DC7401080B4601461D
:1003E000184600F0DEBA2DE9FE4F804681EA030090
:1003F000C00F0C46009021F0004123F00045B8EBFF
:100400000200A94105D24046214690461C460B46B3
:10041000024623F00040104347D0270DC7F30A00DF
:10042000C3F30A510290401A019040286BDAC3F3DB
:10043000130040F4801B0098924620B10023D2EBB9
:10044000030A63EB0B0B01985946C0F1400250467A
:1004500000F068FA06460D4650465946019A00F0EB
:1004600080FA10EB08006141002487EA115284EA07
:10047000E7731A4340D0009A62B3019A012A4FEA07
:10048000075215DC001B61EB02014FF0004202EA4B
:100490000752CDE90042001C41F5801132462B463F
:1004A00000F0DCFA03B0BDE8F08F40462146F9E7E2
:1004B000001B61EB0201001C41F5801300185B4139
:1004C0002018A2F5001747EB030140EAD570B619D2
:1004D0006D4111E06D084FEA360645EAC0754FEAF6
:1004E0000752001B61EB0201001C41F58011490815
:1004F0004FEA30000019514132462B4603B0BDE8A7
:10050000F04F00F09CBA0098012240000023D0EB8D
:10051000020263EBE073009821464FEAE074B8EB07
:10052000000061EB0401E9E783F000435BE781F041
:10053000004158E72DE9FE4F81EA030404F000442E
:1005400021F0004100944FF0000B23F0004350EAEB
:1005500001045ED052EA03045BD0C3F30A54C1F332
:100560000A552C44A4F2F3340194A0FB0254C1F3C5
:10057000130141F48011C3F3130343F4801301FB0F
:10058000024400FB034E840A970A44EA815447EA76
:100590008357A4FB076802958D0A05FB07854FEA80
:1005A000932C04FB0C542705029D4FEA065847EA9A
:1005B0001637B5EB08056EEB070C870E920E47EA6F
:1005C000811742EA8312A7FB0201B6EB0B0164EB31
:1005D00000042B0D43EA0C335E1844EB1C50DA4642
:1005E0005146E7FB0201C5F313044FEA0B3343EA1C
:1005F00014534FEA0432019C43EA0603A4F10C04AD
:100600000294009CCDE900B400F028FA03B0BDE8E4
:10061000F08F00200146F9E72DE9F04D81EA03044F
:1006200004F0004B21F0004514464FF0000A23F07F
:10063000004150EA050220D054EA01021DD0C5F362
:100640000A570246C5F31303C1F31300C1F30A5658
:1006500040F4801543F48013A7EB0608101BD64620
:1006600008F2FD3873EB050002D308F1010801E040
:1006700092185B41B8F1000F03DA00200146BDE893
:10068000F08D00204FF48011064684460EE0171BC3
:1006900073EB050705D3121B63EB050306434CEA16
:1006A000010C49084FEA300092185B4150EA0107FB
:1006B000EDD152EA030012D082EA040083EA050178
:1006C000084305D0101BAB4106D20122002306E0EF
:1006D00000224FF0004302E06FF0010253101AEBCA
:1006E00006004CEB085110EB0A0041EB0B01BDE892
:1006F000F04D00F0A4B930B5041E71F1000404DB24
:100700004FF00044404264EB0101141E73F10004F9
:1007100005DB1C464FF00043524263EB0403801A92
:10072000994101D3012030BD002030BD30B5041EF9
:1007300071F1000404DB4FF00044404264EB01011E
:10074000141E73F1000405DB1C464FF000435242B7
:1007500063EB0403101A8B4101D3012030BD00204C
:1007600030BD30B4044696230800214604D0B62399
:1007700030BC002200F035B920460021F8E70EB564
:10078000C10F80EAE0700844CA07002140F23343F9
:100790008DE80E000A460B4600F060F903B000BD7C
:1007A0000EB540F2334102910021CDE900110A4615
:1007B0000B4600F053F903B000BD3EB5CA17CB0F8E
:1007C000002450405140C0186141DA0740F23343E1
:1007D0000094CDE901232246234600F03FF903B0FF
:1007E00030BD0EB540F2334202920022CDE9002224
:1007F000134600F033F903B000BD20F00040C20DF5
:10080000C0F3160040F400007F2A02DA00200146FF
:1008100070470021962A03DCC2F19602D04070474F
:10082000963A00F07FB870B5C1F30A5201F0004566
:100830000024C1F3130140F2FF3341F480119A42C6
:1008400001DA002070BD40F233439A42A2F23342F3
:1008500003DC524200F075F800E090402C43F1D0E8
:10086000404270BD00F0004230F000400AD0C10D9F
:1008700001F56071C0F3160042EA0151C208400759
:100880001143704700200146704701F0004330B427
:1008900021F0004150EA010206D00A0DA2F5607273
:1008A000C1F31301002A02DC30BC00207047440F62
:1008B00044EAC104C100E01830BC00EBC25000F0B3
:1008C00087B82DE9F05F0546002092469B46884692
:1008D0000646814640241BE02846414647462246BC
:1008E00000F02FF853465A46C01A914110D31146D2
:1008F0001846224600F016F82D1A67EB01084F46FD
:1009000022460120002100F00DF817EB00094E41AE
:10091000201EA4F10104DFDC484631462A46434646
:10092000BDE8F09F202A04DB203A00FA02F1002003
:1009300070479140C2F1200320FA03F3194390401D
:100940007047202A04DB203A21FA02F00021704788
:1009500021FA02F3D040C2F1200291400843194627
:100960007047202A06DBCB17203A41FA02F043EA0F
:10097000E07306E041FA02F3D040C2F12002914058
:1009800008431946704710B5002200E0521C835CF2
:100990008C5CA34201D1002BF8D1D8B2E1B2401A4D
:1009A00010BD2DE9F041074615460E46102015F002
:1009B000E3F804000AD06760C4E9026500F0AEF80D
:1009C0000168216004600020BDE8F0810120FBE7A0
:1009D0000029A8BF7047401C490008BF20F0010053
:1009E000704710B4B0FA80FC00FA0CF050EA010431
:1009F00004BF10BC704749B1CCF1200421FA04F4C3
:100A000011FA0CF118BF012121430843A3EB0C019B
:100A1000CB1D4FEA00614FEA102042BF002010BCFE
:100A2000704700EBC35010440029A4BF10BC7047AE
:100A3000401C490008BF20F0010010BC704710B5F1
:100A4000141E73F1000408DA401C41F100019218F1
:100A50005B411A4301D120F0010010BD2DE9F04D9A
:100A600092469B4611B1B1FA81F202E0B0FA80F2EF
:100A700020329046FFF756FF04460F4640EA0A0030
:100A800041EA0B0153465A46084313D0114653EA34
:100A9000010019D0C8F140025046FFF752FF054649
:100AA0000E46504659464246FFF73CFF084305D0E4
:100AB000012004E020463946BDE8F08D00200543C2
:100AC00046EAE0762C4337430A986305E40AA0EB34
:100AD00008000022FD0A44EA47540A3002D50020EB
:100AE0000146E9E7010510196941DDE908450019EA
:100AF0006941BDE8F04DA2E7064C074D06E0E0680D
:100B000040F0010394E8070098471034AC42F6D354
:100B1000FFF73EFB7C7401089C7401080048704795
:100B2000200000202DE9F0410646FFF7F7FF804640
:100B3000454613E016B1E068B0420ED12068286047
:100B4000D4E90101D8F800708847204613F062FF0D
:100B5000D8F80000B842EBD100E025462C68002C04
:100B6000E8D1BDE8F081704780B582B08DED010A13
:100B70009DED010A13F07CFF02B080BD80B582B00C
:100B80008DED010ACDED000A9DED010ADDED000AB3
:100B900014F004F802B080BD80B582B08DED010A7A
:100BA0009DED010AFFF710FB02B080BD81B00090FF
:100BB0000098002804D0FFE7009800210160FFE7BB
:100BC00001B0704781B000900098002806D0FFE780
:100BD00000980021C4F2B0110160FFE701B0704736
:100BE00080B582B08DED010A9DED010A14F000FB85
:100BF000B7EE001A81EE000A02B080BD80B582B067
:100C00008DED010A9DED010AFFF71AFB02B080BDD0
:100C100080B584B0039002910020ADF806000398DF
:100C2000002804D0FFE70298022801D8FFE71AE065
:100C300003980299023940F24802C2F20002128877
:100C400001F070FBADF80600BDF806000399029AAA
:100C5000114401F8020C9DF807000399029A11440F
:100C600001F8010CFFE704B080BD0000FFE7FEE7DC
:100C700080B58AB046F20040C4F20000022100F0C4
:100C8000FFFA002800F04F81FFE740F2A450C2F2C3
:100C9000000046F20041C4F2000100220490084620
:100CA0001146049B03921A4600F0B4FC40F2A05097
:100CB000C2F200000399049A06F0EAF90498016868
:100CC00040F203129142029100F0CC80FFE70298BB
:100CD000B0F5887F00F0B780FFE740F2111002996D
:100CE00081423ED0FFE70298B0F5897F12D0FFE73E
:100CF0000298B0F5987F00F0E480FFE740F20340EF
:100D00000299814265D0FFE740F204400299814296
:100D10007CD0FFE040F6F460C2F20000002180F8D1
:100D20003F1080F8401040F2A451C2F20001CA7A8C
:100D300002700A7B42704A7B82708A7B0271CA7B96
:100D40000B7C43EA022212B200EE102AB8EEC00A6F
:100D500080ED020A4A7C120980F83C20497CC1706F
:100D6000D9E040F6F460C2F20000002180F83F10A4
:100D700080F8401040F2A451C2F20001CA7A0B7B05
:100D800043EA022202824A7B8B7B43EA022212B2AE
:100D900000EE102AB8EEC00A9FED651A80EE010A37
:100DA00080ED0A0ACA7B0B7C43EA022212B200EEF3
:100DB000102AB8EEC00A80ED0C0A4A7C897C41EA10
:100DC000022109B200EE101AB8EEC00A80ED030A43
:100DD000A1E040F6F460C2F20000002180F83F106C
:100DE00080F8401040F2A451C2F20001CA7A0B7B95
:100DF00043EA022242874A7B8B7B43EA02228286B5
:100E0000CA7B097C41EA0221C18684E040F6F46095
:100E1000C2F20000002180F83F1080F8401040F23C
:100E2000A451C2F20001CA7A0B7B43EA0222428239
:100E30004A7B8B7B43EA02228282CA7B097C41EA9D
:100E40000221C18067E040F2A450C2F20000D0F855
:100E50000B10D0F80F0041F29472C2F20002506001
:100E6000116058E040F2A450C2F20000B0F80B103C
:100E7000090409BA00EE101AB8EEC00A9FED2B1A49
:100E800080EE010A40F6F461C2F2000181ED110A20
:100E9000B0F80D20120412BA00EE102AB8EEC00A03
:100EA00080EE010A81ED120AB0F80F00000400BACA
:100EB00000EE100AB8EEC00A80EE010A81ED130AB6
:100EC00029E040F6F460C2F20000002180F83E10F4
:100ED00040F2A450C2F20000016842688368D0F872
:100EE0000CC000690990CDF820C0079306920591C7
:100EF0000599069A079B0898DDF824C0EE46CEF8BF
:100F000004C0CEF8000041F24470C2F200000BF0C1
:100F10004DFD00E0FFE746F20040C4F20000022170
:100F200000F05CF8FFE70AB080BD00BF0000484356
:100F30000000C84280B546F20040C4F20000012122
:100F400000F09EF9002808D0FFE746F20040C4F206
:100F50000000012100F042F8FFE780BD80B582B0BB
:100F600046F60000C4F20000022100F089F90028D2
:100F70001DD0FFE740F2BC50C2F2000046F600016F
:100F8000C4F2000100220190084600911146019A26
:100F900000F040FB40F2B850C2F200000121019A7B
:100FA00006F076F80221009800F018F8FFE702B08A
:100FB00080BD000080B546F60000C4F200000121AB
:100FC00000F05EF9002808D0FFE746F60000C4F202
:100FD0000000012100F002F8FFE780BD83B002901D
:100FE000019101980128009033D0FFE70098042870
:100FF00036D0FFE70098082836D0FFE70098202871
:1010000036D0FFE70098402836D0FFE70098B0F5CB
:10101000807F3DD0FFE70098B0F5007F3CD0FFE730
:101020000098B0F5806F3BD0FFE70098B0F5006FF7
:101030003AD0FFE70098B0F5004F3CD0FFE70098AA
:10104000B0F5803F1CD0FFE70098B0F5003F1BD003
:1010500038E0029840F20111C0F20101816032E0F3
:1010600002980821C1602EE002981021C1602AE098
:1010700002980821016126E002981021016122E016
:101080000298082141601EE00298102141601AE098
:1010900002980421416016E002980421416012E0A8
:1010A0000298042141600EE00298002181610298BB
:1010B0000421416007E00298002181610298042127
:1010C000416000E0FFE703B07047000080B584B0E6
:1010D0000390039846F20041C4F2000188420BD10C
:1010E000FFE74FF000700121029001F049FA002162
:1010F000029801F045FA0AE04FF08060012101906A
:1011000001F03EFA0021019801F03AFAFFE704B03D
:1011100080BD000082B00190002000900198807A8C
:10112000012101FA00F0009046F20060C4F20000D4
:10113000016841F001010160009846F21C61C4F2AF
:1011400000010A6822EA000008600198007B00287C
:1011500022D1FFE7009846F20C61C4F200010A6850
:1011600022EA000008600198C188428842EA0141F1
:10117000807A46F24062C4F2000242F830100198D0
:101180008188028842EA0141807A46F24462C4F2D0
:10119000000242F83010FFE70198007B012821D1BE
:1011A000FFE7009846F20C61C4F200010A681043A0
:1011B000086001980188428842EA0141807A46F23B
:1011C0004062C4F2000242F8301001988188C2885F
:1011D00042EA0141807A46F24462C4F2000242F8D7
:1011E0003010FFE70198C07A00280AD1FFE7009885
:1011F00046F20461C4F200010A6822EA00000860B5
:1012000008E0009846F20461C4F200010A68104345
:101210000860FFE70198008900280AD1FFE70098DD
:1012200046F21461C4F200010A6822EA0000086074
:10123000FFE701980089012809D1FFE7009846F2ED
:101240001461C4F200010A6810430860FFE70198C6
:10125000407B012809D1FFE7009846F21C61C4F2E7
:1012600000010A6810430860FFE746F20060C4F21C
:101270000000016821F00101016002B07047000028
:1012800080B584B00390029100208DF80700039888
:1012900040690299084200F0B980FFE702980128EE
:1012A00000903BD0FFE70098022842D0FFE700986B
:1012B000042846D0FFE7009808284AD0FFE70098A6
:1012C00010284ED0FFE70098202852D0FFE7009862
:1012D000402856D0FFE70098B0F5807F69D0FFE73F
:1012E0000098B0F5007F6CD0FFE70098B0F5806FF4
:1012F0006FD0FFE70098B0F5006F72D0FFE700985D
:10130000B0F5004F75D0FFE70098B0F5803F40D0B2
:10131000FFE70098B0F5003F43D072E00398806883
:1013200040F20111C0F2010100F0E2FA8DF807006D
:101330006BE00398C068032100F0DAFA8DF807002B
:1013400063E00398C068082100F0D2FA8DF8070026
:101350005BE00398C068102100F0CAFA8DF807001E
:1013600053E003980069032100F0C2FA8DF80700EA
:101370004BE003980069082100F0BAFA8DF80700E5
:1013800043E003980069102100F0B2FA8DF80700DD
:101390003BE003984068082100F0AAFA8DF80700A6
:1013A00033E003984068102100F0A2FA8DF807009E
:1013B0002BE003988069012100F09AFA8DF807006C
:1013C00023E003988069022100F092FA8DF807006B
:1013D0001BE003988069042100F08AFA8DF8070069
:1013E00013E003988069702100F082FA8DF80700FD
:1013F0000BE003984068042100F07AFA8DF80700AA
:1014000003E000208DF80700FFE703E000208DF8DF
:101410000700FFE79DF8070004B080BD83B01346C6
:10142000029001918DF803209DF80300002806D05A
:10143000FFE7019802994A691043486106E0019864
:1014400002994A6922EA00004861FFE703B0704749
:1014500086B00590049100208DF80F000290059849
:10146000016821F0020101600598016841F0010165
:101470000160FFE7059840680021C007002801913E
:1014800008D1FFE702984FF6FF71401A18BF0120FC
:101490000190FFE70198C007002804D0FFE70298F9
:1014A00001300290E6E705984068C007002804D1A3
:1014B000FFE700208DF80F00A7E00498807901284D
:1014C00006D1FFE70598016841F08001016005E061
:1014D0000598016821F080010160FFE70498C07958
:1014E000012806D1FFE70598016841F0400101603D
:1014F00005E00598016821F040010160FFE70498CC
:10150000007A012806D1FFE70598016841F0200123
:10151000016005E00598016821F020010160FFE706
:101520000498407A012806D1FFE70598016841F048
:101530001001016005E00598016821F010010160CB
:10154000FFE70498807A012806D1FFE70598016833
:1015500041F00801016005E00598016821F00801EB
:101560000160FFE70498C07A012806D1FFE70598DB
:10157000016841F00401016005E00598016821F06F
:1015800004010160FFE704988178C278037990F83C
:1015900005C0890741EA026141EA034141EA0C5171
:1015A0000088013808430599C8610598016821F051
:1015B0000101016000200290FFE7059840680021CA
:1015C000C0070028009108D0FFE702984FF6FF718E
:1015D000401A18BF01200090FFE70098C0070028BC
:1015E00004D0FFE7029801300290E6E705984068D2
:1015F000C007002804D0FFE700208DF80F0003E0AB
:1016000001208DF80F00FFE7FFE79DF80F0006B0FF
:101610007047000083B00B4602908DF807100092CF
:1016200002989DF8071000EB0110D0F8B00100F00F
:101630000400009908720098007A00280BD1FFE797
:1016400002989DF8071000EB0110D0F8B001400D92
:10165000009908600AE002989DF8071000EB01105D
:10166000D0F8B001C00800994860FFE702989DF8E3
:10167000071000EB0110D0F8B00100F00200009953
:10168000487202989DF8071000EB0110D0F8B401E1
:1016900000F00F000099887202989DF8071000EB87
:1016A0000110D0F8B401000A0099C87402989DF89E
:1016B000071000EB0110D0F8B8010099C872029829
:1016C0009DF8071000EB0110D0F8B801000A00994E
:1016D000087302989DF8071000EB0110D0F8B801CC
:1016E000000C0099487302989DF8071000EB011058
:1016F000D0F8B801000E0099887302989DF8071081
:1017000000EB0110D0F8BC010099C87302989DF855
:10171000071000EB0110D0F8BC01000A0099087412
:1017200002989DF8071000EB0110D0F8BC01000CE6
:101730000099487402989DF8071000EB0110D0F84A
:10174000BC01000E009988749DF80700002806D19E
:10175000FFE70298C16841F02001C16005E00298EE
:10176000016941F020010161FFE703B0704700000B
:1017700081B000900098002181710098C17100989B
:10178000017200984172009881720098C1720098AD
:1017900081700098C17000980321017100980221A6
:1017A000417100980121018001B0704783B002901F
:1017B000019100208DF80300029880684001002804
:1017C00004D5FFE700208DF8030019E00298806837
:1017D0000001002804D5FFE701208DF803000EE08A
:1017E00002988068C000002804D5FFE702208DF829
:1017F000030003E004208DF80300FFE7FFE7FFE7A5
:101800009DF8030004286ED0FFE702989DF80310AE
:1018100000EB0110D0F8801101F00101C0F8801137
:101820000198007A002810D1FFE701980168407AFA
:1018300040EA415002999DF8032001EB0211D1F8D2
:1018400080211043C1F8800111E001984168027ABB
:1018500042EAC101407A084302999DF8032001EB56
:101860000211D1F880211043C1F88001FFE70198EF
:10187000817A01F00F01817202989DF8031000EB4C
:101880000110D0F8841121F00F01C0F884110198E3
:10189000807A02999DF8032001EB0211D1F884218E
:1018A0001043C1F884010198D0F80B0002999DF80B
:1018B000032001EB0211C1F888010198D0F80F0054
:1018C00002999DF8032001EB0211C1F88C010298E6
:1018D0009DF8031000EB0110D0F8801141F00101D8
:1018E000C0F88011FFE79DF8030003B070470000C7
:1018F00083B00290019100208DF8030002980199B5
:10190000084204D0FFE701208DF8030003E0002027
:101910008DF80300FFE79DF8030003B07047000057
:1019200080B541F61010C2F20000002101604AF2B9
:10193000FF30CDF29360532103F09EFD80BD000087
:1019400080B582B046F22840C4F2020048F6000199
:10195000C1F2000100F032FA00281FD0FFE740F684
:101960003E50C2F200000021018041F26420C2F228
:10197000000080F8C51110F01DFA46F22840C4F2AC
:10198000020048F60001C1F200010190009100F050
:1019900007F80198009900F035F8FFE702B080BD24
:1019A00083B002900191029846F20F41C4F2020105
:1019B000884206D8FFE746F20000C4F20200009019
:1019C00005E046F20040C4F202000090FFE79DF8F7
:1019D00007008006002809D5FFE7019840F67D71D1
:1019E000C0F67D7108400099C86008E0019840F693
:1019F0007D71C0F67D71084000998860FFE703B0F3
:101A00007047000083B002900191029846F20F41A6
:101A1000C4F20201884206D8FFE746F20000C4F291
:101A20000200009005E046F20040C4F2020000907F
:101A3000FFE79DF807008006002809D5FFE7019819
:101A400040F67D71C0F67D7108400099C86008E0DD
:101A5000019840F67D71C0F67D710840009988605C
:101A6000FFE703B07047000082B00A4601908DF88E
:101A700003109DF80300002806D0FFE701980168D5
:101A800041F00101016005E00198016821F00101C8
:101A90000160FFE702B0704781B0009000980168D4
:101AA00021F001010160009800210160009841606F
:101AB000009881600098C160009801610098212120
:101AC0004161009846F21001C4F20201884207D138
:101AD000FFE746F20800C4F202003D21016005E183
:101AE000009846F22801C4F20201884208D1FFE7BB
:101AF00046F20800C4F202004FF474610160F4E0A1
:101B0000009846F24001C4F20201884208D1FFE782
:101B100046F20800C4F202004FF474110160E3E0E1
:101B2000009846F25801C4F20201884208D1FFE74A
:101B300046F20800C4F202004FF074610160D2E086
:101B4000009846F27001C4F20201884209D1FFE711
:101B500046F20C00C4F202003D21C2F20001016015
:101B6000C0E0009846F28801C4F2020188420AD11E
:101B7000FFE746F20C00C4F2020040F64071C2F2E8
:101B800000010160ADE0009846F2A001C4F202013C
:101B9000884209D1FFE746F20C00C4F2020000219E
:101BA000C2F23D0101609BE0009846F2B801C4F228
:101BB0000201884208D1FFE746F20C00C4F202009D
:101BC0004FF03D5101608AE0009846F21041C4F2A6
:101BD0000201884207D1FFE746F20840C4F2020042
:101BE0003D2101607AE0009846F22841C4F20201EA
:101BF000884208D1FFE746F20840C4F202004FF4E1
:101C00007461016069E0009846F24041C4F202014B
:101C1000884208D1FFE746F20840C4F202004FF4C0
:101C20007411016058E0009846F25841C4F2020174
:101C3000884208D1FFE746F20840C4F202004FF0A4
:101C40007461016047E0009846F27041C4F20201FD
:101C5000884209D1FFE746F20C40C4F202003D2160
:101C6000C2F20001016035E0009846F28841C4F2FA
:101C7000020188420AD1FFE746F20C40C4F202009A
:101C800040F64071C2F20001016022E0009846F285
:101C9000A041C4F20201884209D1FFE746F20C409C
:101CA000C4F202000021C2F23D01016010E0009880
:101CB00046F2B841C4F20201884208D1FFE746F279
:101CC0000C40C4F202004FF03D510160FFE7FFE716
:101CD000FFE7FFE7FFE7FFE7FFE7FFE7FFE7FFE7D4
:101CE000FFE7FFE7FFE7FFE7FFE7FFE701B0704728
:101CF00082B00A4601908DF803109DF80300002879
:101D000006D0FFE70198016841F48021016005E0F9
:101D10000198016821F480210160FFE702B070475B
:101D200083B00290019100920098002806D0FFE74E
:101D30000298016841F40021016005E00298016801
:101D400021F400210160FFE701980299086103B0C6
:101D50007047000082B0019000208DF803000198C8
:101D60000068C007002804D0FFE701208DF80300B9
:101D700003E000208DF80300FFE79DF8030002B0A8
:101D80007047000081B000900098406880B201B0B8
:101D90007047000082B00190002000900198006818
:101DA0000003002803D5FFE70120009002E0002097
:101DB0000090FFE7009802B07047000086B00590E1
:101DC000049100208DF80F0001900090059846F2D4
:101DD0000F41C4F20201884206D8FFE746F2000034
:101DE000C4F20200029005E046F20040C4F2020094
:101DF0000290FFE7049840F63C71C0F63C7108423F
:101E00000BD0FFE704981E2101EAD020019005982D
:101E1000006801990840009005E00598406900F0CD
:101E200080000090FFE79DF813008006002804D58D
:101E3000FFE702984068019003E002980068019073
:101E4000FFE7019840F67D71C0F67D710840019072
:101E500001980499084208D0FFE70098002804D0B0
:101E6000FFE701208DF80F0003E000208DF80F0040
:101E7000FFE79DF80F0006B07047000083B00290A6
:101E8000019100200090029800680090009848F2AC
:101E90003F01CFF21C010840009001980168C26820
:101EA0004369D0F818C01143194341EA0C01C269D3
:101EB0001143026A1143426A1143826A1143426B21
:101EC0001143806B084300990843009000980299E1
:101ED0000860029840690090009820F00700009088
:101EE0000198C16A006B084300990843009000986C
:101EF0000299486101980069029948600198406818
:101F000002998860019880680299C86003B07047A0
:101F100082B00A460190ADF80210BDF802000199A6
:101F2000486002B0704700007047000081B0014671
:101F30008DF803009DF80300002809D0FFE743F661
:101F40000040C4F20200016841F48061016008E0D1
:101F500043F60040C4F20200016821F48061016090
:101F6000FFE701B07047000080B586B00A460590D3
:101F70008DF813100020039009208DF80B009DF8B8
:101F80001300002803D1FFE70020039017E09DF81D
:101F90001300012804D1FFE74FF4807003900DE097
:101FA0009DF81300022804D1FFE74FF4007003905E
:101FB00003E04FF440700390FFE7FFE7FFE700F016
:101FC000DDF88DF80B009DF80B00092829D1FFE7FB
:101FD00043F61040C4F20200016821F44071016030
:101FE0000399026811430160016821F0F801016062
:101FF00005990268114341F002010160016841F452
:1020000080310160019000F0B9F88DF80B00019863
:10201000016821F002010160016821F0F80101600E
:10202000FFE79DF80B0006B080BD000081B00920DD
:102030008DF8030043F60C40C4F202000068C003B0
:10204000002804D5FFE701208DF803003BE043F6AC
:102050000C40C4F202000068C006002804D5FFE767
:1020600006208DF803002DE043F60C40C4F2020078
:102070000068C005002804D5FFE702208DF80300A2
:102080001FE043F60C40C4F20200006810F0E00FBD
:1020900004D0FFE707208DF8030011E043F60C4061
:1020A000C4F2020000688007002804D5FFE708207A
:1020B0008DF8030003E009208DF80300FFE7FFE738
:1020C000FFE7FFE7FFE79DF8030001B0704700005E
:1020D00043F61040C4F20200016841F00041016083
:1020E0007047000080B584B00390029109208DF8FC
:1020F000070000F043F88DF807009DF80700092855
:102100001ED1FFE743F61040C4F20200016821F43B
:1021100040710160016841F400710160016841F0A3
:10212000010101600299039A1160009000F026F805
:102130008DF807000098016821F001010160FFE7B8
:102140009DF8070004B080BD43F61040C4F20200C1
:102150000068C00F00280FD0FFE743F60440C4F228
:10216000020040F22311C4F26751016048F6AB113E
:10217000CCF6EF510160FFE77047000080B582B0F8
:1021800009208DF80700FFF751FF8DF80700FFE7E2
:102190009DF80700012805D1FFE7FFF747FF8DF8FD
:1021A0000700F5E79DF8070002B080BD85B00490F8
:1021B000039100200290019000900290FFE70298A6
:1021C0000F286ED8FFE70298012101FA00F0019074
:1021D000039800680199084000900098019988428E
:1021E0005AD1FFE702984000032101FA00F0049958
:1021F0000A6822EA00000860039800790299490001
:10220000884004990A6810430860039800790128FF
:1022100005D0FFE703980079022828D1FFE702984C
:102220004000032101FA00F004998A6822EA0000C4
:1022300088600398407902994900884004998A6827
:1022400010438860BDF80800012101FA00F00499EC
:102250004A6822EA0000486003988079BDF80810B7
:10226000884080B204994A6810434860FFE7BDF88F
:1022700008004000032101FA00F00499CA6822EA2C
:102280000000C8600398C079029949008840049909
:10229000CA681043C860FFE7FFE702980130029068
:1022A0008DE705B07047000080B584B013468C46BA
:1022B0000390ADF80A108DF80920002001900090DD
:1022C0009DF80900BDF80A1001F007018900884057
:1022D0000190BDF80A0000F0070189000F2202FA00
:1022E00001F1039A6FF0030E0EEA50001044026AE7
:1022F00022EA010101620398BDF80A1047F6FC7258
:1023000002EA51010844006A0199084300900098CC
:102310000399BDF80AE002EA5E021144086204B0C3
:1023200080BD000084B0134602900191ADF80220F8
:102330000298002805D1FFE74FF6FF70ADF80E00B8
:1023400022E0FFE70198411E0191002817D0FFE726
:102350000298411C029100788DF80100BDF802003E
:102360009DF801104140C9B247F27C22C0F601023B
:1023700032F8111081EA1020ADF80200E2E7BDF852
:102380000200ADF80E00FFE7BDF80E0004B0704784
:10239000FFE7FEE743F20000C4F200004CF6CC4138
:1023A0000160704743F20000C4F200004AF6AA211F
:1023B0000160704781B001468DF803009DF803006D
:1023C00043F20402C4F20002106001B07047000042
:1023D00081B00146ADF80200BDF8020043F20802E8
:1023E000C4F20002106001B07047000081B00146E5
:1023F000ADF80200BDF8020043F20002C4F2000290
:10240000106001B070470000FFE7FEE77047000072
:1024100082B0019000208DF803008DF802000F209B
:102420008DF801000198C078002847D0FFE74EF6EC
:102430000C50CEF200000068C043C0F302208DF8BB
:1024400003009DF80300C0F104008DF802009DF820
:1024500001009DF80310C8408DF8010001984078F4
:102460009DF8021088408DF80300019880789DF84F
:10247000011008409DF8031008438DF803009DF8F3
:10248000030000018DF803009DF80300019909780D
:102490004EF20042CEF2000288540198007800F01B
:1024A0001F01012202FA01F14EF20012CEF20002E7
:1024B00042EAD00020F00300016010E001980078AB
:1024C00000F01F01012202FA01F14EF28012CEF259
:1024D000000242EAD00020F003000160FFE702B0F2
:1024E0007047000081B0009000980021C0F2FA51BE
:1024F00008434EF60C51CEF20001086001B070475F
:1025000082B00A4601908DF803109DF80300002860
:1025100009D0FFE7019843F63001C4F202010A68CE
:102520001043086009E0019843F63001C4F202014B
:102530000A6822EA00000860FFE702B07047000066
:1025400082B00A4601908DF803109DF80300002820
:1025500009D0FFE7019843F64001C4F202010A687E
:102560001043086009E0019843F64001C4F20201FB
:102570000A6822EA00000860FFE702B07047000026
:1025800082B00A4601908DF803109DF803000028E0
:1025900009D0FFE7019843F62001C4F202010A685E
:1025A0001043086009E0019843F62001C4F20201DB
:1025B0000A6822EA00000860FFE702B070470000E6
:1025C00082B00A4601908DF803109DF803000028A0
:1025D00009D0FFE7019843F62401C4F202010A681A
:1025E0001043086009E0019843F62401C4F2020197
:1025F0000A6822EA00000860FFE702B070470000A6
:1026000088B0079000200690059004900221039165
:102610000290019143F60800C4F20200006800F045
:102620000C00069006980028009008D0FFE700985C
:1026300004280BD0FFE7009808280ED051E0079837
:1026400042F20041C0F2F401016051E0079841F20A
:102650000021C0F27A0101604AE043F60400C4F2AE
:1026600002000168C1F380510291006800F03F0050
:1026700001900298002811D0FFE7019841F2002153
:10268000C0F27A01B1FBF0F043F60401C4F202019A
:102690000968C1F388114843049010E0019842F2A0
:1026A0000041C0F2F401B1FBF0F043F60401C4F2C2
:1026B00002010968C1F3881148430490FFE743F61B
:1026C0000400C4F20200006800F44030022101EB73
:1026D000D030039004980399B0FBF1F0079908609B
:1026E00006E0079842F20041C0F2F4010160FFE702
:1026F00043F60800C4F20200016801F0F0010691FF
:10270000069909090691069946F66062C0F601022B
:10271000515C059107990B68DDF814C023FA0CF39E
:102720004B60016801F4E05106910699890A06910F
:102730000699515C059107994B68DDF814C023FA9E
:102740000CF38B60006800F4604006900698400B24
:1027500006900698105C059007984168059AD1404C
:10276000C16008B07047000083B000200290019063
:1027700043F60000C4F20200016841F480310160B8
:10278000FFE743F60000C4F20200006800F40030E6
:102790000190029801300290FFE701980021002883
:1027A000009107D1FFE70298B0F5A04018BF0120C3
:1027B0000090FFE70098C0070028E2D1FFE743F64A
:1027C0000000C4F2020000688003002803D5FFE780
:1027D0000120019002E000200190FFE7019801280C
:1027E0005AD1FFE743F64000C4F20200016841F00D
:1027F0008051016047F20000C4F20000016841F41A
:102800004041016043F60800C4F202000168016023
:10281000016841F400410160016841F4A051016088
:1028200043F60400C4F2020045F20841C0F24071D0
:10283000016043F60000C4F20200016841F08071BB
:102840000160FFE743F60000C4F202000068800167
:10285000002801D4FFE7F5E743F60040C4F2020088
:1028600040F20571016043F60800C4F202000168FD
:1028700021F003010160016841F002010160FFE7FE
:1028800043F60800C4F20200006800F00C000828BB
:1028900001D0FFE7F4E700E0FFE703B07047000076
:1028A00081B000900098042809D1FFE74EF2100093
:1028B000CEF20000016841F00401016008E04EF230
:1028C0001000CEF20000016821F004010160FFE772
:1028D00001B0704780B541F6E410C2F20000016813
:1028E0000131016040F29460C2F2000000780028DB
:1028F0001FD0FFE741F62810C2F200000188013125
:102900000180418801314180818801318180C18805
:102910000131C18001890131018141890131418148
:10292000818901318181C1890131C18100F03CF887
:10293000FFE780BD80B54EF68850CEF200000168FA
:1029400041F47001016043F60000C4F20200016826
:1029500041F00101016043F60801C4F202010022C6
:102960000A6001684FF6FF73CFF6F6631940016005
:1029700043F60401C4F2020143F21003C2F2004321
:102980000B60016821F48021016043F60C00C4F261
:1029900002000260FFF7E8FE4EF60850CEF200009B
:1029A0004FF00061016080BD80B594B0139001F0DC
:1029B00073FC1191109001F0E9FD01F06DFC109A8B
:1029C000801A139A506113980088022810DBFFE7E1
:1029D00013980021018001F05FFC0F910E9001F02F
:1029E000B7FD01F059FC0E9A801A139A9061FFE727
:1029F00013984088052810DBFFE7139800214180D9
:102A000001F04AFC0D910C9001F0A0FD01F044FC96
:102A10000C9A801A139AD061FFE7139880880A28CD
:102A200010DBFFE713980021818001F035FC0B914A
:102A30000A9001F089FD01F02FFC0A9A801A139A7E
:102A40001062FFE71398C088142810DBFFE7139883
:102A50000021C18001F020FC0991089001F0A2FC46
:102A600001F01AFC089A801A139A5062FFE7139833
:102A70000089322810DBFFE713980021018101F063
:102A80000BFC0791069001F089FC01F005FC069A09
:102A9000801A139A9062FFE713984089642810DB2C
:102AA000FFE713980021418101F0F6FB05910490A6
:102AB00001F072FC01F0F0FB049A801A139AD062C4
:102AC000FFE713988089B0F5FA7F10DBFFE71398D2
:102AD0000021818101F0E0FB0391029001F082FB73
:102AE00001F0DAFB029A801A139A1063FFE7139839
:102AF000C089B0F57A7F10DBFFE713980021C18110
:102B000001F0CAFB0191009001F06AFB01F0C4FBE7
:102B1000009A801A139A5063FFE7139841698269FB
:102B2000C369D0F820C04FF4FA7E02FB0EF24FF4D6
:102B30007A7E01FB0E21C82203FB021164220CFBEA
:102B40000211426A322302FB0311826A02EB820203
:102B500001EB8201C26A02EB820201EB4201026BCD
:102B600001EB4201426B114400EE101AB8EE400A2C
:102B70009FED031A80EE010A80ED040A14B080BDB7
:102B80000024744980B54FF08040012100F036F8F0
:102B900001280DD1FFE741F61010C2F200000168D4
:102BA000013101604FF08040012100F003F8FFE7A0
:102BB00080BD000082B00A460190ADF80210BDF859
:102BC0000200C0430199088202B0704782B00A46F1
:102BD00001908DF803109DF80300002806D0FFE750
:102BE0000198018841F00101018005E00198018808
:102BF00021F001010180FFE702B0704783B00A466F
:102C00000290ADF8061000208DF80500ADF8020026
:102C1000ADF800000298008ABDF806100840ADF833
:102C2000020002988089BDF806100840ADF8000047
:102C3000BDF80200002809D0FFE7BDF80000002819
:102C400004D0FFE701208DF8050003E000208DF897
:102C50000500FFE79DF8050003B0704782B01346FA
:102C60008C460190ADF802108DF801209DF801000E
:102C7000002807D0FFE7BDF8020001998A891043B8
:102C8000888107E0BDF8020001998A8922EA0000E4
:102C90008881FFE702B0704783B002900191002065
:102CA000ADF8020002980088ADF8020002980021F9
:102CB000C4F20101884225D0FFE7029840F20041AA
:102CC000C4F2010188421DD0FFE70298B0F1804FA5
:102CD00018D0FFE7029840F20041C4F20001884298
:102CE00010D0FFE7029840F60001C4F200018842CC
:102CF00008D0FFE7029840F60041C4F20001884284
:102D00000ED1FFE7BDF8020020F07000ADF8020020
:102D100001984088BDF802100843ADF80200FFE7B3
:102D2000029841F20001C4F20001884216D0FFE788
:102D3000029841F20041C4F2000188420ED0FFE740
:102D4000BDF8020020F44070ADF80200019800893F
:102D5000BDF802100843ADF80200FFE7BDF802001D
:102D600002990880019840680299C8620198008819
:102D70000299088502980021C4F20101884208D016
:102D8000FFE7029840F20041C4F20101884205D1F8
:102D9000FFE70198807A02990886FFE702980121EF
:102DA000818203B07047000080B586B001F074FAEC
:102DB000FDF7D7FC059045F20000C4F2000040F298
:102DC000244100F035FA002875D0FFE745F20000F5
:102DD000C4F2000001888DF8131045F20401C4F21A
:102DE000000109888DF8131046F21001C4F20201A7
:102DF0000022039008461146FEF736FE40F22441B9
:102E0000039800F019F941F6E810C2F200001F2102
:102E1000029000F075FB41F23871C2F200010860C7
:102E200002980178A52924D1FFE741F6E810C2F203
:102E300000001F2100F064FB00281AD0FFE741F6D4
:102E40000820C2F2000000210171018801310180D7
:102E500041F61820C2F20000417EC1F300118DF846
:102E6000131041F6E811C2F200011F22FDF766FAC5
:102E7000FFE7FFE746F21000C4F20200FEF76AFF28
:102E8000002801D0FFE7F5E746F21000C4F2020087
:102E90000190FEF701FE41F63821C2F200010198CF
:102EA000FEF7ECFF20210198FFF732F8012101988D
:102EB000FEF7DAFDFFE706B080BD000080B588B000
:102EC00044F20040C4F2000040F2244100F0B0F9A6
:102ED000002800F09A80FFE744F20040C4F20000AE
:102EE00000F004FB46F28801C4F202010790084694
:102EF000FEF750FF00283CD1FFE746F28800C4F2FD
:102F0000020000210690FEF7AFFD0698FEF73AFF9B
:102F1000C0F1240040F6D051C2F200010880242004
:102F2000069A05901046059B04911946FEF7F0FF9E
:102F30000698016841F40021016040F60041C2F2A8
:102F40000001FEF72DFD01210698FEF78DFD049886
:102F5000018812290CD1FFE741F61410C2F20000DB
:102F600040F6CC11C2F200011222FDF7E7F9FFE7AB
:102F70003DE046F28800C4F2020000210390FEF713
:102F800073FD0398FEF7FEFEC0F1240040F6D05119
:102F9000C2F2000108802420039A02901046029B8E
:102FA00001911946FEF7B4FF0398016821F400214E
:102FB000016040F60041C2F20001FEF7F1FC012180
:102FC0000398FEF751FD0198018812290ED1FFE701
:102FD00040F6CC10C2F2000000F1240141F61410BA
:102FE000C2F200001222FDF7A9F9FFE7FFE701F0A6
:102FF00053F940F2B062C2F20002C2F8AC10C2F85B
:10300000A800012082F8A200FFE708B080BD000000
:1030100082B00A460190ADF80210BDF802008005AA
:10302000002801D5FFE7FFE7BDF80200C043019982
:10303000088002B07047000083B00A460290ADF8E5
:1030400006100020ADF80400ADF80200BDF806003F
:1030500040F66A11884201D1FFE7FFE79DF80700BB
:10306000ADF80400BDF80400012101FA00F0ADF84C
:103070000200BDF80200C0430299088003B0704707
:1030800082B00A4601908DF803109DF803000028D5
:1030900006D0FFE70198818941F40051818105E064
:1030A0000198818921F400518181FFE702B07047C6
:1030B00082B013468C460190ADF802108DF80120C5
:1030C0009DF80100002807D0FFE7BDF80200019934
:1030D0008A8A1043888207E0BDF8020001998A8A33
:1030E00022EA00008882FFE702B0704780B58AB00C
:1030F0000990099841F20001C4F2010188420AD105
:10310000FFE7102001210890FFF75AFA00210898E4
:10311000FFF756FA8AE0099844F20041C4F2000130
:1031200088420BD1FFE74FF4003001210790FFF7F1
:1031300027FA00210798FFF723FA76E0099844F66A
:103140000001C4F2000188420BD1FFE74FF4802058
:1031500001210690FFF714FA00210698FFF710FAF4
:1031600062E0099844F60041C4F2000188420BD1A4
:10317000FFE74FF4002001210590FFF701FA00213D
:103180000598FFF7FDF94EE0099845F20001C4F2F9
:10319000000188420BD1FFE74FF480100121049019
:1031A000FFF7EEF900210498FFF7EAF93AE00998F1
:1031B00041F20041C4F2010188420AD1FFE7202018
:1031C00001210390FFF7FCF900210398FFF7F8F9BC
:1031D00027E0099847F60001C4F2000188420BD1AC
:1031E000FFE74FF0804001210290FFF7C9F900216D
:1031F0000298FFF7C5F913E0099847F60041C4F2B9
:10320000000188420BD1FFE74FF0004001210190FF
:10321000FFF7B6F900210198FFF7B2F9FFE7FFE7E2
:10322000FFE7FFE7FFE7FFE7FFE7FFE70AB080BD43
:1032300086B00A460590ADF8121000200390029067
:1032400001908DF80300BDF8120040F66A11884223
:1032500001D1FFE7FFE79DF8120040090190BDF89A
:10326000120000F01F0002900298012101FA00F004
:1032700002900198012806D1FFE7059880890299FC
:103280000840029010E00198022806D1FFE7059857
:10329000008A02990840029005E00598808A029908
:1032A00008400290FFE7FFE79DF8130003900398A2
:1032B000012101FA00F00390059800880399084065
:1032C00003900298002808D0FFE70398002804D054
:1032D000FFE701208DF8030003E000208DF80300D4
:1032E000FFE79DF8030006B07047000086B0134664
:1032F0008C460590ADF812108DF811200020039037
:10330000029001900090BDF8120040F66A118842C8
:1033100001D1FFE7FFE7059800909DF812004009F2
:103320000390BDF8120000F01F00029002980121E6
:1033300001FA00F001900398012804D1FFE70098FA
:103340000C3000900CE00398022804D1FFE70098AD
:103350001030009003E0009814300090FFE7FFE782
:103360009DF81100002806D0FFE7019800990A682F
:103370001043086006E0019800990A6822EA0000FC
:103380000860FFE706B0704780B58AB009900891E1
:1033900000200790069005900490089880890028E6
:1033A00001D0FFE7FFE70998008A0790079820F40B
:1033B000405007900898C0880799084307900798DD
:1033C00009990882099880890790079841F20C6151
:1033D00088430790089881880289114340890843EF
:1033E0000799084307900798099988810998808A66
:1033F0000790079820F440700790089880890799F3
:10340000084307900798099988826846FFF7F8F8FB
:10341000099841F20001C4F20101884208D0FFE797
:10342000099841F20041C4F20101884203D1FFE74B
:103430000398069002E002980690FFE709988089B9
:10344000000400280AD5FFE7069819214843089987
:1034500009684900B0FBF1F0059009E006981921D0
:103460004843089909688900B0FBF1F00590FFE72F
:10347000059848F21F51C5F2EB11A0FB01016FF056
:103480000F0202EA510107910599079A1209642374
:1034900002FB13110491099989890904002910D5A7
:1034A000FFE70498322101EBC00048F21F51C5F23A
:1034B000EB11A0FB0101C1F34211079A11430791DF
:1034C0000FE00498322101EB001048F21F51C5F2C1
:1034D000EB11A0FB0101C1F34311079A11430791BE
:1034E000FFE70798099908810AB080BD81B0009074
:1034F000009880886FF35F2001B07047FFE7FEE718
:1035000080B586B0049003910020ADF80A000498BD
:10351000002804D0FFE70398022803D8FFE7002023
:10352000059029E004980399023940F24802C2F25A
:1035300000021288FEF7F6FEADF80A009DF80A00B8
:103540000499039A114411F8021C00228842019246
:103550000DD1FFE79DF80B000499039A114411F86F
:10356000011C401AB0FA80F040090190FFE7019871
:1035700000F001000590FFE7059806B080BD00004F
:1035800080B510F05FFE80BD80B510F08DFE80BD6F
:1035900080B510F02DFF80BD80B510F0D9FE80BD44
:1035A00080B510F05FFE80BD80B510F0F3FE80BDE9
:1035B00080B510F00FFF80BD80B510F0ABFE80BD70
:1035C00080B510F09FFE80BD80B510F0EBFE10F0CE
:1035D00027FF80BD80B510F0D5FE80BD80B510F00E
:1035E000F1FE80BD80B510F075FE80BD80B510F095
:1035F00031FE10F00DFF10F02BFF10F04DFF80BDDD
:1036000080B510F0FDFE10F01BFF10F029FF80BD0B
:1036100080B510F02FFE80BD80B588B040F6F46014
:10362000C2F2000090F84000C92808DBFFE740F62E
:10363000F460C2F20000012180F83F1009E040F67A
:10364000F460C2F2000090F84010013180F84010A0
:10365000FFE741F23C70C2F20000016801310160F5
:103660000068012840F0E582FFE741F23900C2F22C
:103670000000007841F67011C2F20001087040F6B7
:103680006070C2F2000090F84800C00700280AD01D
:10369000FFE740F64870C2F200000168012262F3C1
:1036A0009751016031E040F66070C2F2000090F87E
:1036B0003400C00700280AD0FFE740F64870C2F285
:1036C00000000168022262F3975101601CE040F69D
:1036D0006070C2F2000090F85900C007002809D0BD
:1036E000FFE740F64870C2F20000016841F4400173
:1036F000016008E040F64870C2F20000016821F461
:1037000040010160FFE7FFE7FFE741F25000C2F22E
:10371000000090F8361001F0010140F64872C2F244
:1037200000021368D2F804C023F4001343EA4151A5
:10373000C2F804C0116041F61821C2F20001497EAE
:10374000012323EA11111368D2F804C023F0806327
:1037500043EA8161C2F804C0116041F29C71C2F277
:10376000000191F888101368D2F804C001F001013B
:1037700023F0006343EAC161C2F804C01160D0F8CD
:103780009810059008460492FDF737F804990A68E6
:103790004B686FF35F2047F6C07C23EA0C0343EAD3
:1037A00080100A60486041F24470C2F2000090F854
:1037B00032200B68D1F804C002F0030223F040531A
:1037C00043EA0272C1F804C00A6041F60822C2F25C
:1037D000000212790B68D1F804C002F0010223F450
:1037E000003343EA4242C1F804C00A60027D0B681C
:1037F000D1F804C062F30003C1F804C00B60027D7D
:103800000B68D1F804C0520862F34103C1F804C048
:103810000B60027D0B68D1F804C0920862F382034A
:10382000C1F804C00B6090F830000A684B6800F0E3
:103830007F0022F47E7242EAC0004B600860059867
:1038400090F83520002A26D0FFE741F25000C2F25E
:103850000000C06B32280AD1FFE740F64870C2F280
:1038600000000168012262F3D441016012E041F2DC
:103870005000C2F20000C06B19280AD1FFE740F6E1
:103880004870C2F200000168022262F3D441016074
:10389000FFE7FFE708E040F64870C2F20000016869
:1038A00021F4C0110160FFE741F29C70C2F20000F8
:1038B0004069D0F8CC00012809DBFFE741F29C7099
:1038C000C2F200004069D0F8CC00039009E041F258
:1038D0009C70C2F200004069D0F8CC0040420390D6
:1038E000FFE7039840F64871C2F200010A6800F051
:1038F0007F0022F4FE3242EA8020086041F250004C
:10390000C2F20000006890F8F00000280AD1FFE73A
:1039100041F25000C2F20000406890F8F000002828
:1039200009D0FFE740F64870C2F20000416821F478
:10393000C00141605AE041F25000C2F2000000684C
:10394000B0F9C200012809DBFFE741F25000C2F2E2
:1039500000000068B0F9C200029009E041F2500096
:10396000C2F200000068B0F9C20040420290FFE7D6
:10397000029840F6AD5188422DDBFFE741F250003E
:10398000C2F200004068B0F9C200012809DBFFE77D
:1039900041F25000C2F200004068B0F9C20001904C
:1039A00009E041F25000C2F200004068B0F9C200E4
:1039B00040420190FFE7019840F6AD5188420ADB92
:1039C000FFE740F64870C2F200004168022262F34D
:1039D0005651416009E040F64870C2F2000041686B
:1039E000012262F356514160FFE7FFE741F6F8001C
:1039F000C2F20000006800280FD1FFE740F64870CF
:103A0000C2F200004168012262F3D951416041F6DF
:103A1000F800C2F200000260FFE741F61820C2F28F
:103A20000000407E0009C007002815D1FFE741F6DD
:103A30001820C2F20000B0F8190040F64871C2F236
:103A400000010A684B6800F0070023F0607343EA46
:103A5000C0500A604860FFE740F66070C2F20000A4
:103A60000AF07CFE8DED060A9DED060A9FED7F1A99
:103A7000B4EE410AF1EE10FA09DDFFE79DED060A0A
:103A80009FED7B1A30EE010A8DED060AFFE79DEDF2
:103A9000060A9FED781A80EE010A9FED771A20EE54
:103AA000010ABDEEC00A10EE100A40F64871C2F2DB
:103AB00000010A684B68C0B223F03F0322F0404285
:103AC00042EA807243EA900048600A6040F6606013
:103AD000C2F20000407D0A684B6800F0010022F04D
:103AE000807242EA00604B60086041F25000C2F20E
:103AF0000000806890F8F0000A684B6800F0010050
:103B000023F4004343EAC0300A60486040F6607026
:103B1000C2F2000090F8590000F001000A684B68FA
:103B200023F4801343EA00500A60486040F6D42032
:103B3000C2F20000007803280AD1FFE740F648707F
:103B4000C2F200004168022262F31241416041E08A
:103B500040F6D420C2F20000007801280AD1FFE725
:103B600040F64870C2F200004168012262F312413F
:103B700041602EE040F6D420C2F200000078042814
:103B80000AD1FFE740F64870C2F200004168032204
:103B900062F3124141601BE040F6D420C2F2000003
:103BA000007802280AD1FFE740F64870C2F2000010
:103BB0004168042262F31241416008E040F6487017
:103BC000C2F20000416821F4E0214160FFE7FFE715
:103BD000FFE7FFE741F67420C2F20000B0F80D00E5
:103BE000C0F3001040F64871C2F200010A684B6849
:103BF00023F0806343EA80600A60486040F2B0606E
:103C0000C2F20000808CC0F340300A684B6823F099
:103C1000006343EAC0600A60486046F20040C4F2B4
:103C2000000040F2411200900846009900F0E4FEC6
:103C3000FFE741F23C70C2F200000068022813D195
:103C4000FFE741F23C70C2F200000021016040F643
:103C50005070C2F2000046F20041C4F2000140F28E
:103C6000511200F0C9FEFFE708B080BD00003443E8
:103C70000000B4C30000B44300007F438CB08DED5E
:103C80000A0ACDED090A9DED090AB5EE400AF1EEEA
:103C900010FA06D1FFE740F6D870C3F6C970049059
:103CA0000BE09DED0A0AB5EE400AF1EE10FA03D1E1
:103CB000FFE700200B9023E1FFE79DED0A0AB5EE38
:103CC000400AF1EE10FA05DDFFE79DED0A0A8DEDE1
:103CD000010A06E09DED0A0AB1EE400A8DED010AE7
:103CE000FFE79DED010A8DED070A9DED090AB5EE8E
:103CF000400AF1EE10FA05DDFFE79DED090A8DEDB2
:103D0000000A06E09DED090AB1EE400A8DED000AB9
:103D1000FFE79DED000A8DED080A9DED070A9DED78
:103D2000081AB4EE410AF1EE10FA09DAFFE79DED48
:103D3000070A9DED081A80EE010A8DED060A08E0DB
:103D40009DED080A9DED071A80EE010A8DED060A29
:103D5000FFE79DED060A9FED6C1AB4EE410AF1EE05
:103D600010FA03DAFFE70698039037E09DED060AA4
:103D70009FED661A20EE010ABEEE001A30EE010A2F
:103D80008DED050A9DED050ABDEEC00A8DED020A16
:103D90009DED020AB8EEC00A9DED051A31EE400A0B
:103DA0008DED050A029840F28401C2F2000151F83B
:103DB00020000390029801EB800090ED000A90ED46
:103DC000011A31EE400A9DED051A20EE010A9DED23
:103DD000031A31EE000A8DED030AFFE79DED080A94
:103DE0009DED071AB4EE410AF1EE10FA3CDDFFE753
:103DF0009DED090AB5EE400AF1EE10FA13DBFFE77C
:103E00009DED0A0AB5EE400AF1EE10FA03DBFFE77A
:103E10000398049006E09DED030AB1EE400A8DED93
:103E2000040AFFE71FE040F6DB70C4F2490004908B
:103E30009DED0A0AB5EE400AF1EE10FA09DBFFE744
:103E40009DED030A9DED041A31EE400A8DED040A42
:103E500008E09DED030A9DED041A30EE410A8DED58
:103E6000040AFFE7FFE748E09DED0A0AB5EE400AC5
:103E7000F1EE10FA20DBFFE740F6DB70C3F6C97005
:103E800004909DED090AB5EE400AF1EE10FA09DB47
:103E9000FFE79DED030A9DED041A31EE400A8DED1A
:103EA000040A08E09DED030A9DED041A31EE000AB4
:103EB0008DED040AFFE71FE040F6DB70CBF6C9701A
:103EC00004909DED090AB5EE400AF1EE10FA09DB07
:103ED000FFE79DED030A9DED041A31EE000A8DED1A
:103EE000040A08E09DED030A9DED041A31EE400A34
:103EF0008DED040AFFE7FFE7FFE704980B90FFE76B
:103F00009DED0B0A0CB070478180803B0000804320
:103F1000B0B59AB00C20C0F2200001211291FEF73A
:103F2000EFFA4FF480101299FEF70AFB40F60000FA
:103F3000C4F202000C210822119010910F92FEF79A
:103F4000B3F940F60040C4F2020002210E900D9138
:103F50000F9AFEF7A9F94FF4805014900D988DF840
:103F6000540000218DF8561003228DF855208DF84D
:103F7000571014AB11980C9119460B920A93FEF747
:103F800015F9042014900D988DF854000C998DF8B3
:103F900056100B9A8DF855208DF857100E980A99E7
:103FA000FEF704F945F20000C4F200000990FFF7A3
:103FB0009DF84FF4E12016900C98ADF85C00ADF838
:103FC0005E00ADF860001099ADF86210ADF86400C5
:103FD00016A90998FFF7D8F909981299FFF750F830
:103FE00035208DF84C000B988DF84D008DF84E0063
:103FF00012998DF84F1013A8FEF70AFA46F2100036
:10400000C4F202000890FDF747FD41F63820C2F2E5
:1040100000004FF00061016045F20402C4F20002AA
:10402000426041F6E813C2F2000383600C9BC36058
:104030004FF0200CC0F810C043614FF4806CC0F802
:1040400018C0C361036243624FF4003EC0F828E029
:10405000C362036343638363089C07902046079D04
:10406000069129460592CDF810C0CDF80CE0FDF779
:1040700005FF08981299FDF7F7FC46F2B800C4F264
:1040800002000290FDF708FD41F69020C2F2000008
:1040900006990160059A426041F67423C2F200035A
:1040A00083604023C3601A2303610C9B4361DDF8E6
:1040B00010C0C0F818C0C36103624362DDF80CE0B1
:1040C000C0F828E0C362036343638363029C0190EA
:1040D00020460199FDF7D2FE40F224410998129A38
:1040E000FFF704F9C0210998129AFEF7E1FF41F6A3
:1040F0001820C2F20000B0F8191041F01001A0F829
:1041000019101AB0B0BD000080B588B004A8FEF741
:1041100077FA059844F6D351C1F26201A0FB010180
:10412000890903910399C9080391039902900846EC
:1041300001F048F86FF0040101900846FEF7B0FB6B
:1041400008B080BD80B582B040F66070C2F2000059
:10415000019009F031F9019809F0BAFF02B080BD71
:1041600080B588B00790069145F255500290FEF751
:104170003DF943F20400C4F200000068059043F2E8
:104180000800C4F20000006804900420FEF712F951
:1041900040F2EE20FEF71CF945F62D20CAF2D2506F
:1041A00003900799069A0020C0F60E00019000F0D7
:1041B0004DF90698019901EB800003A9012200F056
:1041C00045F90298FEF712F99DF81400FEF7F2F88F
:1041D000BDF81000FEF7FCF800F0ECFE08B080BD62
:1041E000704700007047000080B584B0EFF3108086
:1041F00072B6039046F20040C4F2000000F01EFCCC
:1042000046F60000C4F2000000F018FC00F070FD5B
:1042100000F098FC41F2B050C2F200009FED1D0A80
:10422000B1EE041A8DED020AF0EE410A8DED011A8D
:1042300007F066FC41F2D050C2F200009DED020A88
:10424000DDED010A07F05CFC41F2F050C2F2000023
:104250009DED020ADDED010A07F052FC41F29C706F
:10426000C2F2000003F0F0FE40F2B060C2F20000C3
:1042700005F0DCFFFFF74CFE0420322100F09EFE2B
:1042800062B640F29460C2F200000121017004B0F5
:1042900080BD00BF00007A4484B01020C4F200004A
:1042A0000088C00700280ED0FFE741F61010C2F2C8
:1042B00000000168013101601020C4F200004FF6D7
:1042C000FE710180FFE741F61010C2F200000068A5
:1042D000002103910290029803994AF20042CDF224
:1042E000936251432423C4F200031B68E0FB0231B4
:1042F000019100930098019904B0704782B08DED50
:10430000010ACDED000A9DED010AB5EE400AF1EE7D
:1043100010FA0EDDFFE79DED010A9DED001AB4EEE7
:10432000410AF1EE10FA03DAFFE700200190FFE7FF
:104330000FE09DED010A9DED001AB1EE411AB4EEB9
:10434000410AF1EE10FA03DDFFE700200190FFE7DC
:10435000FFE79DED010A02B07047000080B584B010
:1043600003900291019200200090FFE700980199CC
:1043700088420FD2FFE7039800F088F90299009A6B
:1043800041F82200039804300390FFE700980130C1
:104390000090EBE704B080BD7047000080B500F0EE
:1043A0008FFD80BD7047000080B586B0002004906E
:1043B0000020C0F60E0004A90122FFF7CFFF0498E9
:1043C000002805D0FFE704980130002803D1FFE75B
:1043D0000020059037E0049820F04041411A18BFB2
:1043E00001214FEA8000002918BF4FF0FF300FF085
:1043F000F0FE03900399049A40F20000C0F60E000C
:104400000190FFF7ABFF0498019901EB800002A92E
:104410004FF00102FFF7A2FF029845F62D21CAF2E4
:10442000D25188420CD0FFE703980028009004D0B6
:10443000FFE700980FF0C9FEFFE70020059002E0BB
:1044400003980590FFE7059806B080BD80B588B059
:1044500006900591049209208DF80F00002002902B
:104460000190EFF3108072B6079000F0A3FD06985C
:10447000B0F1006F06D3FFE79DF818008007002811
:1044800001D0FFE75EE0FDF75FFE0020FDF74EFD87
:10449000069802900698049900EB8100019002981A
:1044A0004FF6FF71C1F6FE71884226D8FFE7FFE79D
:1044B0000298019988421FD2FFE7029800F0E6F8BF
:1044C0000130002813D0FFE700F074FD029800F0DF
:1044D0009FF90221FDF748FD8DF80F0000F06AFDFD
:1044E0009DF80F00092801D0FFE705E003E00298DE
:1044F00004300290FFE7DBE7FFE79DF80F00092893
:1045000019D1FFE7FFE706980199884212D2FFE729
:10451000069805990968FDF7E5FD092801D0FFE730
:1045200008E006980430069005980430059000F0E5
:1045300041FDE8E7FFE70120FDF7F8FCFDF7C8FDC6
:1045400062B6FFE708B080BD70470000704700000A
:1045500080B500F02BFCFFF7F5FD00F017FD00F033
:10456000A7FD00F047FD41F24000C2F2000002F05A
:1045700049F9FFF751F800F08FF841F67010C2F2D8
:1045800000000EF0EBF807F0D1FB80BD80B540F2E3
:10459000B060C2F2000005F081FC00F0A9FD40F619
:1045A000C060C2F20000006890ED230AB1EE400A3C
:1045B00041F66010C2F2000080ED000A80BD0000EC
:1045C00080B584B00A46034603910290019200939D
:1045D000FFF762FE029A039B801A61EB030104B0AD
:1045E00080BD000080B584B040F6F460C2F20000E7
:1045F000816A41F67422C2F20002C2F81310511C03
:1046000041F23423C2F200034FF00C0C4FF0010EC4
:104610000390184602926246734602F07FFBA52083
:1046200002990870039890F83C20B1F80D3062F3BD
:104630000103A1F80D301A210298FCF7E9FA46F2BD
:10464000B800C4F202000021FDF70EFAFFE746F2BF
:10465000B800C4F20200FDF77DFB002801D0FFE79F
:10466000F5E746F2B800C4F202000190FDF714FA33
:1046700041F69021C2F200010198FDF7FFFB0121F4
:104680000198FDF7F1F904B080BD000081B0009001
:104690000098006801B0704781B041F67420C2F202
:1046A0000000B0F80D1021F00C01A0F80D10B0F8CA
:1046B0000D1021F04001A0F80D10B0F80D1021F000
:1046C0001001A0F80D10B0F80D1021F02001A0F895
:1046D0000D1040F2B060C2F20000808C000BC007E9
:1046E00000280BD0FFE741F67420C2F20000B0F8BA
:1046F0000D1041F01001A0F80D10FFE740F2D1506D
:10470000C2F20000007803281BD1FFE740F6D42056
:10471000C2F200000078002808D0FFE740F6D4205D
:10472000C2F20000007803280BD1FFE741F67420A5
:10473000C2F20000B0F80D1041F02001A0F80D10F9
:10474000FFE740F6D420C2F20000007801460428BA
:10475000009144D80099DFE801F00304352A1700DE
:104760003DE041F67420C2F20000B0F80D1041F0B7
:10477000040121F00801A0F80D10B0F80D1041F46B
:104780008071A0F80D102AE041F67420C2F20000FA
:10479000B0F80D1041F0040121F00801A0F80D104F
:1047A000B0F80D1021F48071A0F80D1017E041F65B
:1047B0007420C2F20000B0F80D1041F04001A0F8E2
:1047C0000D100CE041F67420C2F20000B0F80D109C
:1047D00041F0080121F00401A0F80D10FFE701B03D
:1047E0007047000080B582B08DED010AFFF754FDDF
:1047F000FBF7B7FF00EE100A9FED041A80EE010AE6
:104800009DED011A30EE410A02B080BD00247449CA
:1048100082B00090009843F6FF71C0F60001884214
:1048200004D8FFE70020ADF806007BE0009847F6CB
:10483000FF71C0F60001884204D8FFE70820ADF8F8
:1048400006006FE000984BF6FF71C0F60001884249
:1048500004D8FFE71020ADF8060063E000984FF69B
:10486000FF71C0F60001884204D8FFE71820ADF8B8
:10487000060057E000984FF6FF71C0F6010188422C
:1048800004D8FFE72020ADF806004BE000984FF673
:10489000FF71C0F60301884204D8FFE72820ADF875
:1048A00006003FE000984FF6FF71C0F60501884210
:1048B00004D8FFE73020ADF8060033E000984FF64B
:1048C000FF71C0F60701884204D8FFE73820ADF831
:1048D000060027E000984FF6FF71C0F609018842F4
:1048E00004D8FFE74020ADF806001BE000984FF623
:1048F000FF71C0F60B01884204D8FFE74820ADF8ED
:1049000006000FE000984FF6FF71C0F60D018842D7
:1049100004D8FFE75020ADF8060003E05820ADF8BA
:104920000600FFE7BDF8060002B0704780B58AB008
:1049300009900891079200208DF810008DF8110061
:1049400008208DF8120007980290099890ED000A4F
:10495000BDEEC00A10EE100A000A8DF81300099887
:1049600090ED000ABDEEC00A10EE100A8DF814009A
:10497000099890ED010ABDEEC00A10EE100A000A77
:104980008DF81500099890ED010ABDEEC00A10EEF1
:10499000100A8DF81600099890ED020ABDEEC00AC3
:1049A00010EE100A000A8DF81700099890ED020A1F
:1049B000BDEEC00A10EE100A8DF81800099890EDAF
:1049C000030ABDEEC00A10EE100A000A8DF81900A5
:1049D000099890ED030ABDEEC00A10EE100A8DF89A
:1049E0001A00089802A9FCF7E1FE8DF807006E2076
:1049F00000F08EF80AB080BD80B58AB009900891A9
:104A0000079200208DF810008DF8110008208DF815
:104A1000120007980290099801684068CDF81700C5
:104A2000CDF81310089802A9FCF7C0FE8DF8070016
:104A30006E2000F06DF80AB080BD000080B58AB02D
:104A40000990099800F0E8FB0998FCF73FFB06A8DD
:104A50000190FCF78DFE00208DF81E0001218DF8DD
:104A60001F108DF820108DF821008DF822008DF890
:104A700023108DF81A008DF81B0008208DF81C00FB
:104A800003208DF81D00ADF8180009980199FCF776
:104A9000DFFC099946F20042C4F20002914204D1BF
:104AA000FFE700208DF8120003E00E208DF81200C1
:104AB000FFE700208DF8130001218DF81410ADF8E8
:104AC0000800ADF80A00ADF80C00ADF80E00ADF826
:104AD00010008DF8151002A80091FCF71BFB099837
:104AE0000221009AFCF79AFC09980099009AFCF7B9
:104AF00095FC0AB080BD000080B582B0019001989D
:104B00004FF47A71484300F003F802B080BD000012
:104B100080B584B00390FFF7BFFB01910090FFE7E1
:104B2000FFF7BAFB039A009BDDF804C0D2184CF1E2
:104B30000003101A73EB010101D3FFE7F0E704B0A3
:104B400080BD000080B5A8B000208DF89F004FF414
:104B500030710D9008460FF03FFB0C900CF084FD77
:104B600040F6C060C2F200000C9901600D982690DA
:104B700025902490239022902190209004220121BE
:104B800010460B92FDF7BCFC4FF422700FF024FB93
:104B900001466A4645F20043C4F2000353600D9B90
:104BA000136040F60002C4F2020202230A90099147
:104BB00011460B9A0BF0B2FC0D980A990029089047
:104BC00005D0FFE7099800F120010891FFE7089858
:104BD00040F6C061C2F200010A689DF89F3002EB06
:104BE0008302C2F8600217A824220790069111469A
:104BF0000592FBF7CAFB4FF07E5017901B901F9059
:104C000006990A689DF89F3002EB8302D2F8602271
:104C10000490104607990AF091FF0EA80390059999
:104C2000FBF7B3FB04980E901290169006990A6851
:104C30009DF89F3002EB8302D2F8600203990AF0DC
:104C40005FFF069801689DF89F2001EB8201D1F873
:104C5000601201F5887140F25462C2F20002022330
:104C6000104602921A460BF09FFF069801689DF8C5
:104C70009F2001EB8201D1F86012C031032202981B
:104C80000BF092FF9DF89F0001308DF89F00069871
:104C900001680A68926808469047069801680A68A1
:104CA0005268084690473220FFF726FF06980068B2
:104CB00009F0ACFF06980168012281F8BB22016867
:104CC000002381F8BC32016881F8582101689031D5
:104CD00041F61422C2F20002116041F61021C2F224
:104CE000000141F66012C2F200020A6028B080BDE5
:104CF00080B582B040F6C460C2F2000002F0E6FC6B
:104D000041F21060C2F20000019002F0DFFC0020CE
:104D1000019900900846009902F0CCFC0198009996
:104D200002F0FEFC02B080BD85B08DED040A4FF0AC
:104D30007F5000909DED040AB6EE001A20EE010AA5
:104D40008DED020A0498019001980390039845F6AE
:104D50008621C5F63771A1EB60000390039801909E
:104D60009DED010A9DED021A21EE001A21EE001AB6
:104D7000B7EE082A32EE411A20EE010A8DED010A43
:104D80009DED010A9DED021A21EE001A21EE001A96
:104D900032EE411A20EE010A8DED010A9DED040A62
:104DA0009DED011A20EE010A05B0704780B58AB06A
:104DB00040F6C060C2F20000006890F828020028A7
:104DC00009D0FFE740F6C060C2F200000068016849
:104DD00049688847FFE740F6C060C2F200000068FB
:104DE00000210AF0B9F90991089041F61420C2F2A5
:104DF00000000068002831D0FFE741F61020C2F221
:104E000000000068002829D0FFE708980999FBF7FF
:104E1000A8FC00EE100A9FED291A80EE010A41F26B
:104E20003421C2F2000104A80122019001F08EFE9B
:104E300041F61420C2F2000000680068029041F6BA
:104E40001020C2F200000068006803909DED020A85
:104E5000DDED030A019801F033FFFFE7FFF7C2FB26
:104E600040F6C060C2F200000168D1F88820D1F895
:104E70008C30D1F8901040F67C6CC2F2000CCCF86B
:104E80000810CCF80430CCF800200168A03140F6BE
:104E9000EC52C2F200025023009010461A46FBF773
:104EA0004DFA00980168F03141F2C010C2F20000E2
:104EB0006822FBF743FA0AB080BD00BF00247449A2
:104EC00080B582B000F076F841F23900C2F20000FD
:104ED0000078002808D1FFE740F2D150C2F200006C
:104EE000007803280BD1FFE741F21060C2F2000006
:104EF0004FF0FF316FF0030202F066FC0AE041F26E
:104F00001060C2F200004FF0FF316FF0020202F0B9
:104F10005BFCFFE740F6C460C2F200003221019161
:104F200002F09AFC41F21060C2F20000019902F016
:104F300093FC40F6D250C2F2000001784A1C027085
:104F4000142921D1FFE741F60820C2F200000088B1
:104F5000002809D1FFE741F60820C2F20000012134
:104F600001710021418008E041F60820C2F20000F2
:104F70000188418000210180FFE740F6D250C2F253
:104F8000000000210170FFE702B080BD80B582B053
:104F900041F29C70C2F20000019002F069FD01989C
:104FA00002F046FE019803F06BFB019802F098FDB9
:104FB00002B080BD80B5FDF7F5F980BD80B584B045
:104FC0000A4603468DF80F00ADF80C1045F2555017
:104FD00002920193FDF70AFA9DF80F00FDF7EAF936
:104FE000BDF80C00FDF7F4F9FDF7DCF9FDF7D2F997
:104FF00004B080BD80B582B041F23900C2F2000039
:105000000078002814D1FFE740F2B060C2F200003F
:10501000808C0021B1EBD03F11D0FFE740F2B060AF
:10502000C2F20000808C4009C007002807D0FFE7CB
:1050300040F66060C2F2000001210170FFE741F21A
:105040003900C2F20000007800282AD1FFE740F6BC
:105050006060C2F20000007800280DD0FFE740F643
:105060006060C2F20000B3EE040ADFED0F0A9FEDAC
:105070000F1A0CF065FBFFE740F66060C2F200001B
:10508000007BC00700280BD1FFE740F66060C2F24A
:10509000000001900CF056FC01980CF017FBFFE7A4
:1050A000FFE702B080BD00BF00409C450000FA450C
:1050B00080B541F25000C2F200008168D1F8D010F2
:1050C000816241F23900C2F200000078002808D065
:1050D000FFE741F25000C2F20000012180F83410D5
:1050E000FFE741F25000C2F2000005F0E9FA80BD8E
:1050F00080B540F63E50C2F200000088B0F5FA7F5D
:1051000008DDFFE741F26420C2F20000012180F8CF
:10511000C51107E040F63E50C2F20000018801319F
:105120000180FFE741F26420C2F200000DF026F892
:1051300080BD000080B582B00146ADF80600BDF824
:105140000600002803D1FFE70020009007E0BDF82B
:1051500006004008FFF7EEFF01300090FFE70098DF
:1051600002B080BD80B582B00146ADF80600BDF842
:105170000600002803D1FFE70020009007E0BDF8FB
:1051800006004008FFF7EEFF01300090FFE70098AF
:1051900002B080BD80B582B00146ADF80600BDF812
:1051A0000600002803D1FFE70020009007E0BDF8CB
:1051B00006004008FFF7EEFF01300090FFE700987F
:1051C00002B080BD80B582B0009000980138B0F187
:1051D000807F03D3FFE70120019019E00098013898
:1051E0004EF21401CEF2000108604FF0FF300F21A3
:1051F00000F0D0F84EF21800CEF20000002101605D
:105200004EF21000CEF20000072202600191FFE78B
:10521000019802B080BD000080B590B00F900F984B
:1052200046F20041C4F2000188424AD1FFE7022061
:1052300001210B900A91FDF763F94FF000700A9974
:10524000FDF77EF940F20040C4F202000821092275
:1052500009900892FDF728F809980899089AFDF72F
:1052600023F84FF440700D900B988DF83800002112
:105270008DF83A1003218DF839100DAA099807917D
:105280001146FCF793FF14208DF8300007988DF835
:1052900031000A998DF832108DF833100CAA10469F
:1052A0000692FDF7B5F813208DF830000A988DF8B6
:1052B00031008DF832008DF833000698FDF7A8F81C
:1052C0004CE00F9846F60001C4F20001884244D138
:1052D000FFE70220012105900491FDF711F94FF03D
:1052E00080600499FDF72CF940F20040C4F20200FE
:1052F0000D21092203900292FCF7D6FF0C2103989E
:10530000029AFCF7D1FF4FF440500D9005988DF8AC
:1053100038000DA90398FCF749FF40208DF83000B4
:1053200000208DF831008DF8320004998DF833108B
:105330000CAA019010460092FDF76AF83F208DF804
:10534000300001988DF831008DF8320004998DF805
:1053500033100098FDF75CF8FFE7FFE710B080BD61
:1053600080B582B00146ADF80600BDF80600002801
:1053700003D1FFE70020009009E0BDF80600A0F58A
:10538000806080B2FFF7ECFF01300090FFE70098EB
:1053900002B080BD82B002468DF8070000919DF9F1
:1053A000070000280AD4FFE7009800019DF90710C4
:1053B0004EF20042CEF2000288540BE00098000149
:1053C0009DF8071001F00F014EF61452CEF20002C4
:1053D0008854FFE702B07047BFF34F8F4EF60C5072
:1053E000CEF20000016801F4E0610422C0F2FA523A
:1053F00011430160BFF34F8FFFE700BFFDE70000DF
:10540000BFF34F8F4EF60C50CEF20000016801F44E
:10541000E0610422C0F2FA5211430160BFF34F8FE2
:10542000FFE700BFFDE70000BFF34F8F4EF60C50C3
:10543000CEF20000016801F4E0610422C0F2FA52E9
:1054400011430160BFF34F8FFFE700BFFDE700008E
:10545000BFF34F8F4EF60C50CEF20000016801F4FE
:10546000E0610422C0F2FA5211430160BFF34F8F92
:10547000FFE700BFFDE7000080B58AB00A4609904B
:10548000ADF822100120039003990292FDF758F81D
:1054900009980690BDF82200ADF814000020ADF880
:1054A0001600ADF81C004FF0804105AA0190084697
:1054B00000911146FDF7F0FB00980399FDF786FB7C
:1054C00000980399039AFDF7C9FB00980399FDF72B
:1054D00071FB1C208DF8100003988DF811000199C4
:1054E0008DF812108DF8130004A8FCF791FF0AB094
:1054F00080BD000080B582B001900198C16800298C
:10550000009005D0FFE70098C16804308847FFE7A6
:1055100000200099486002B080BD000081B000907A
:105520000098017841F00101017001B0704700005E
:1055300080B582B001900198017801F0FE01017000
:1055400001784908C9070029009009D0FFE70098B1
:10555000FFF7D0FF0098017801F0FD010170FFE72F
:1055600002B080BD80B582B00190019881680029A9
:10557000009005D0FFE70098816804308847FFE776
:1055800002B080BD80B582B0019001980169002908
:10559000009005D0FFE70098016904308847FFE7D5
:1055A00000200099486002B080BD000080B584B042
:1055B0000146ADF80A0040F63850C2F2000000681B
:1055C000002801D1FFE731E040F63850C2F2000078
:1055D00000680390039801684068401A4008ADF8DD
:1055E0000800BDF80800002801D1FFE71EE040F6E2
:1055F0006050C2F2000006F037FA9FED0D1A20EE5F
:10560000010ABCEEC00A8DED010A0198B0F5FA7FDF
:1056100003D9FFE700200190FFE7BDF80A00BDF8BD
:105620000820019B002100F005F8FFE704B080BDD1
:1056300000007A4410B58AB094468E460446ADF810
:105640001600ADF81410ADF812200393BDF8160043
:10565000C0F340108DF80500BDF81600C0F300102F
:105660008DF80400BDF81400ADF80200FFE7BDF8A6
:105670000200BDF81210884280F28080FFE740F6F9
:105680005050C2F200000068BDF802100790069169
:1056900007980068069950F82100029040F63850AB
:1056A000C2F200000068BDF8021009900891099844
:1056B0000068089930F81100ADF806009DF8040064
:1056C00000280BD0FFE702980078C008C007002828
:1056D00004D0FFE70298FFF72BFF49E00298FFF79D
:1056E0001DFFFFE79DF8050000280BD0FFE702989B
:1056F00000788008C007002804D0FFE70298FFF771
:1057000017FF35E00298FFF709FFFFE7BDF8060035
:10571000BDF816100140884219D1FFE702980078C1
:105720004008C007002809D0FFE7039802994A689B
:10573000104448600298FFF715FF19E002980178BD
:1057400041F0020101700298FFF71CFF10E002987F
:1057500000784008C007002809D0FFE702980178C8
:1057600001F0FD0101700298FFF7C4FEFFE7FFE7BB
:10577000BDF802000130ADF8020078E70AB010BDB4
:10578000B0B5ADF5DC6DDDF8F8C6DDF8F4E6DDF8B2
:10579000F0460D463090ADF8BE102E922D938DF848
:1057A000B3E08DF8B2C030983190017841F001013A
:1057B0000170017801F0FD0101709DF8B3100278CD
:1057C00001F0010102F0FB0242EA810101709DF843
:1057D000B210027801F0010102F0F70242EAC101C1
:1057E000017000214160DDF8F01681602D99C160E3
:1057F0002E99016140F65051C2F20001096800295A
:10580000219040F0C682FFE70C2020900EF0E4FCCF
:105810003290329935913599369100220A604A606A
:1058200008313492399134A9389133A93791399993
:10583000389B3A933A9B3F913E933F9BDDF8F8C0EB
:10584000CDF800C11A60379B3D933B913B993C9149
:1058500040F65051C2F20001086020981F920EF0ED
:10586000BBFC8E908E999191919992911F9A0A60AA
:105870004A6008319092959190A994918FA9939143
:105880009599949B9693969B9B919A939B9BDDF8FD
:1058900068C2CDF870C21A60939B999397919799BB
:1058A000989140F63851C2F2000108602B92FFE750
:1058B0002B980F2800F36C82FFE740F63850C2F2B5
:1058C000000000682B99012202FA01F1ADF8AA103C
:1058D0009E900DF1AA009D909E9841689F909F9A7E
:1058E0000832A092A09AA192A19A126891421E90A9
:1058F0003ED2FFE79D98D190D1981E99D691D59030
:10590000D698D2AA01231D9010461D991C921A46C2
:105910000EF0EEFA1D98D790D7990831D891D89902
:10592000D991D999D39ADA92DA9AD59BE893E89BE0
:10593000DE91DD92DC93DE99DD9ADC9BDF93DF9BC9
:10594000E291E192E093E299E19AE09BE393E39B99
:10595000E691E592E493E599E49AE792E79A128852
:105960000A80D3990231D3911C980EF0D3FA9EE0AD
:105970009D98E990E9981E99A991A890A998AA9054
:10598000AA9A0832AB92AB9AAC92AC9AA792AD901D
:10599000AD9A13685268D21A012303EB6202B290E7
:1059A000B192B29A1B9010461A920DF031FFB0904E
:1059B000B198B099884203D9FFE71A980DF0F2FE2A
:1059C0001A98B490B499B591B599B691B69A08322F
:1059D000B792B79AB892B89A12680968511A4910E2
:1059E000AF91AF99B09AB1EB520F03D3FFE7B098E4
:1059F000B39021E0AF984000AE90AEA8BA90B1A8A5
:105A0000B990BA98B999BC90BB91BC98BB99BDAA02
:105A1000C092BF90BE91BF980068BE990968884245
:105A200003D2FFE7BB98199002E0BC981990FFE7FA
:105A300019980068B390FFE7B3991B98C190C19A79
:105A400013685268D21A5210A79B0DF5227C60464B
:105A5000CDF860C00DF0F8FFA798A499C291C29943
:105A6000A89AD092D09AC690C591C492C698C5996A
:105A7000C49AC792C79ACA90C991C892CA98C9993C
:105A8000C89ACB92CB9ACE90CD91CC92CD98CC990E
:105A9000CF91CF9909880180A4980230A4901B98D7
:105AA00018990EF03FFA18980EF042F8FFE740F60A
:105AB0005050C2F2000000681421179008460EF002
:105AC0008BFB169000F028FD16992991179AEB92FE
:105AD00029AAEA92EB9A5368EC92DDF8B0C30CF174
